:100000000C9446000C9465000C9465000C946500FB
:100010000C9465000C9465000C9465000C946500CC
:100020000C9465000C9465000C9465000C946500BC
:100030000C9465000C9465000C9465000C946500AC
:100040000C9465000C9465000C9465000C9465009C
:100050000C9465000C9465000C9465000C9465008C
:100060000C9465000C9465000C9465000C9465007C
:100070000C9465000C9465000C9465000C9465006C
:100080000C9465000C9465000C94650011241FBE4F
:10009000CFEFD0E4DEBFCDBF11E0A0E0B1E0E0E102
:1000A000F3E000E00BBF02C007900D92A631B1074C
:1000B000D9F711E0A6E1B1E001C01D92A831B10766
:1000C000E1F70E9490000C9486010C940000CF93FD
:1000D000DF9300D01F92CDB7DEB789837B836A831D
:1000E00089818A3031F48A819B81BC018DE00E9434
:1000F000670080EC90E0FC018081882F90E08072A6
:1001000099270097B1F386EC90E02981FC012083C8
:1001100080E090E00F900F900F90DF91CF910895C5
:10012000CF93DF93CDB7DEB72D970FB6F894DEBF30
:100130000FBECDBF81E290E0FC01108282E290E030
:100140002FEFFC01208384E290E02FEFFC0120835D
:1001500085E290E0FC0110821C821D8281E089838F
:1001600088E0EEE0F1E0DE01169601900D928A95AE
:10017000E1F71B821A82109217011092160180E299
:1001800090E0FC01808187708C8380E290E0FC012C
:10019000808180788D838D81803831F485E290E094
:1001A000FC01108281E089838091160190911701F2
:1001B00081309105B9F08130910548F08230910588
:1001C00009F45CC08330910509F46BC097C081E0ED
:1001D00090E0909317018093160185E290E0FC0176
:1001E000108293C08C81282F30E08A819B81880FF8
:1001F000991FAE014F5F5F4F840F951F0596FC015D
:10020000808191812817390739F583E090E0909338
:100210001701809316018A819B8101969B838A83B3
:100220008A819B818430910541F58981882339F049
:1002300085E290E021E0FC012083198206C085E27E
:1002400090E0FC01108281E0898382E090E090934D
:1002500017018093160159C08C81882339F481E0FD
:1002600090E0909317018093160107C082E090E020
:10027000909317018093160148C047C01B821A82D1
:100280008C81882339F481E090E09093170180936A
:1002900016013BC082E090E0909317018093160115
:1002A00034C08C81882339F481E090E09093170169
:1002B0008093160122C08C81282F30E08A819B8197
:1002C0000197880F991FAE014F5F5F4F840F951FF5
:1002D0000596FC01808191812817390739F483E064
:1002E00090E0909317018093160107C082E090E0A0
:1002F000909317018093160108C007C081E090E039
:100300009093170180931601000039CFF894FFCF26
:100310000000000200000000670000000000040070
:06032000010002000100D3
:00000001FF
