:100000000C9446000C9465000C9465000C946500FB
:100010000C9465000C9465000C9465000C946500CC
:100020000C9465000C9465000C9465000C946500BC
:100030000C9465000C9465000C9465000C946500AC
:100040000C9465000C9465000C9465000C9465009C
:100050000C9465000C9465000C9465000C9465008C
:100060000C9465000C9465000C9465000C9465007C
:100070000C9465000C9465000C9465000C9465006C
:100080000C9465000C9465000C94650011241FBE4F
:10009000CFEFD0E4DEBFCDBF11E0A0E0B1E0E6ECF1
:1000A000F2E000E00BBF02C007900D92AE30B10746
:1000B000D9F711E0AEE0B1E001C01D92A031B10767
:1000C000E1F70E9490000C9461010C940000CF9322
:1000D000DF9300D01F92CDB7DEB789837B836A831D
:1000E00089818A3031F48A819B81BC018DE00E9434
:1000F000670080EC90E0FC018081882F90E08072A6
:1001000099270097B1F386EC90E02981FC012083C8
:1001100080E090E00F900F900F90DF91CF910895C5
:10012000CF93DF9300D0CDB7DEB781E290E0FC0142
:10013000108282E290E02FEFFC01208384E290E0C5
:100140002FEFFC01208385E290E0FC0110821982F0
:100150001A8210920F0110920E0180E290E0FC01D1
:1001600080818770898380E290E0FC0180818078C3
:100170008A838A81803821F485E290E0FC01108234
:1001800080910E0190910F018230910509F443C0D6
:100190008330910530F4009769F081309105A9F022
:1001A00088C08330910509F447C08430910509F473
:1001B0005FC07FC081E090E090930F0180930E01BB
:1001C00085E290E0FC0110827BC08981813039F4A6
:1001D00082E090E090930F0180930E011BC0898113
:1001E000823039F482E090E090930F0180930E0109
:1001F00011C08981843039F483E090E090930F013D
:1002000080930E0107C081E090E090930F018093EE
:100210000E0156C055C08981882339F481E090E0F1
:1002200090930F0180930E014BC082E090E0909379
:100230000F0180930E0144C08981882339F484E042
:1002400090E090930F0180930E0111C0898184305A
:1002500039F483E090E090930F0180930E0107C082
:1002600082E090E090930F0180930E0129C028C096
:100270008981823061F485E290E021E0FC012083F5
:1002800082E090E090930F0180930E0111C089816C
:10029000882339F484E090E090930F0180930E015D
:1002A00007C082E090E090930F0180930E0108C098
:1002B00007C081E090E090930F0180930E01000051
:0602C0004CCFF894FFCFC3
:0E02C6000000000200000000670000000000C1
:00000001FF
