:100000000C9446000C9465000C9465000C946500FB
:100010000C9465000C9465000C9465000C946500CC
:100020000C9465000C9465000C9465000C946500BC
:100030000C9465000C9465000C9465000C946500AC
:100040000C9465000C9465000C9465000C9465009C
:100050000C9465000C9465000C9465000C9465008C
:100060000C9465000C9465000C9465000C9465007C
:100070000C9465000C9465000C9465000C9465006C
:100080000C9465000C9465000C94650011241FBE4F
:10009000CFEFD0E4DEBFCDBF11E0A0E0B1E0EAE8F1
:1000A000F2E000E00BBF02C007900D92AE30B10746
:1000B000D9F711E0AEE0B1E001C01D92A031B10767
:1000C000E1F70E9490000C9443010C940000CF9340
:1000D000DF9300D01F92CDB7DEB789837B836A831D
:1000E00089818A3031F48A819B81BC018DE00E9434
:1000F000670080EC90E0FC018081882F90E08072A6
:1001000099270097B1F386EC90E02981FC012083C8
:1001100080E090E00F900F900F90DF91CF910895C5
:10012000CF93DF931F92CDB7DEB781E290E0FC0161
:10013000108282E290E02FEFFC01208384E290E0C5
:100140002FEFFC01208385E290E0FC0110821982F0
:1001500010920F0110920E0180E290E0FC0180816C
:100160008170898380910E0190910F0182309105F9
:1001700009F43FC08330910530F4009761F081307D
:100180009105A9F058C08330910511F18430910593
:1001900009F440C050C081E090E090930F0180933B
:1001A0000E0185E290E021E0FC0120834BC08981B3
:1001B000813039F483E090E090930F0180930E0139
:1001C00041C081E090E090930F0180930E013AC00E
:1001D0008981882339F482E090E090930F01809325
:1001E0000E0130C083E090E090930F0180930E01E8
:1001F00029C08981813039F484E090E090930F0127
:1002000080930E011FC082E090E090930F018093D5
:100210000E0118C08981882339F481E090E0909321
:100220000F0180930E010EC084E090E090930F01C7
:1002300080930E0107C081E090E090930F018093BE
:100240000E01000080910E0190910F018230910506
:10025000B1F083309105A8F08330910521F084300E
:10026000910539F00FC085E290E022E0FC01208387
:1002700009C085E290E021E0FC01208303C000007A
:0A0280006BCF000069CFF894FFCFA8
:0E028A000000000200000000670000000000FD
:00000001FF
