:100000000C9446000C9465000C9465000C946500FB
:100010000C9465000C9465000C9465000C946500CC
:100020000C9465000C9465000C9465000C946500BC
:100030000C9465000C9465000C9465000C946500AC
:100040000C9465000C9465000C9465000C9465009C
:100050000C9465000C9465000C9465000C9465008C
:100060000C9465000C9465000C9465000C9465007C
:100070000C9465000C9465000C9465000C9465006C
:100080000C9465000C9465000C94650011241FBE4F
:10009000CFEFD0E4DEBFCDBF11E0A0E0B1E0E0EEF5
:1000A000F2E000E00BBF02C007900D92AE30B10746
:1000B000D9F711E0AEE0B1E001C01D92A031B10767
:1000C000E1F70E9490000C946E010C940000CF9315
:1000D000DF9300D01F92CDB7DEB789837B836A831D
:1000E00089818A3031F48A819B81BC018DE00E9434
:1000F000670080EC90E0FC018081882F90E08072A6
:1001000099270097B1F386EC90E02981FC012083C8
:1001100080E090E00F900F900F90DF91CF910895C5
:10012000CF93DF9300D01F92CDB7DEB781E290E08E
:10013000FC01108282E290E02FEFFC01208384E238
:1001400090E02FEFFC01208385E290E0FC0110821B
:100150001A821B8281E0898310920F0110920E0196
:1001600080E290E0FC01808187708A8380E290E0E9
:10017000FC01808180788B838B81803831F485E22B
:1001800090E0FC01108281E0898380910E019091C2
:100190000F018230910509F443C08330910530F49A
:1001A000009769F081309105A9F090C083309105E6
:1001B00009F447C08430910509F45FC087C081E02D
:1001C00090E090930F0180930E0185E290E0FC0196
:1001D000108283C08A81813039F482E090E090936C
:1001E0000F0180930E011BC08A81823039F482E0B6
:1001F00090E090930F0180930E0111C08A818430AA
:1002000039F483E090E090930F0180930E0107C0D2
:1002100081E090E090930F0180930E015EC05DC07D
:100220008A81882339F481E090E090930F018093D4
:100230000E0153C082E090E090930F0180930E0175
:100240004CC08A81882339F484E090E090930F01B8
:1002500080930E0111C08A81843039F483E090E0EC
:1002600090930F0180930E0107C082E090E090937D
:100270000F0180930E0131C030C08A818230A1F419
:100280008981882331F085E290E021E0FC01208320
:1002900004C085E290E0FC01108282E090E090933F
:1002A0000F0180930E0111C08A81882339F484E004
:1002B00090E090930F0180930E0107C082E090E0E0
:1002C00090930F0180930E0108C007C081E090E079
:1002D00090930F0180930E01000042CFF894FFCF5E
:0E02E0000000000200000000670000000000A7
:00000001FF
