:100000000C9446000C9465000C9465000C946500FB
:100010000C9465000C9465000C9465000C946500CC
:100020000C9465000C9465000C9465000C946500BC
:100030000C9465000C9465000C9465000C946500AC
:100040000C9465000C9465000C9465000C9465009C
:100050000C9465000C9465000C9465000C9465008C
:100060000C9465000C9465000C9465000C9465007C
:100070000C9465000C9465000C9465000C9465006C
:100080000C9465000C9465000C94650011241FBE4F
:10009000CFEFD0E4DEBFCDBF11E0A0E0B1E0ECEDEA
:1000A000F2E000E00BBF02C007900D92AE30B10746
:1000B000D9F711E0AEE0B1E001C01D92A031B10767
:1000C000E1F70E9490000C946C010C940000CF9317
:1000D000DF9300D01F92CDB7DEB789837B836A831D
:1000E00089818A3031F48A819B81BC018DE00E9434
:1000F000670080EC90E0FC018081882F90E08072A6
:1001000099270097B1F386EC90E02981FC012083C8
:1001100080E090E00F900F900F90DF91CF910895C5
:10012000CF93DF9300D0CDB7DEB781E290E0FC0142
:10013000108282E290E02FEFFC01208387E290E0C2
:100140002FEFFC01208388E290E0FC0110821A82EC
:10015000198210920F0110920E0180E290E0FC01D2
:10016000808183708A8380910E0190910F0182308B
:10017000910509F44EC08330910530F4009769F081
:100180008130910599F09BC08330910509F45DC0E1
:100190008430910509F476C092C081E090E090939C
:1001A0000F0180930E0187E0898390C08A8183309C
:1001B00041F482E090E090930F0180930E01198248
:1001C00027C08A81823069F484E090E090930F0127
:1001D00080930E0189818823D9F089818150898398
:1001E00075C08A81813069F483E090E090930F01BB
:1001F00080930E018981893058F489818F5F8983CA
:1002000065C081E090E090930F0180930E015EC085
:100210005DC08A81823039F484E090E090930F01D0
:1002200080930E0111C08A81813039F483E090E01F
:1002300090930F0180930E0107C082E090E09093AD
:100240000F0180930E0142C041C08A81882339F496
:1002500081E090E090930F0180930E0112C08A819B
:10026000833041F4198282E090E090930F018093F3
:100270000E0107C083E090E090930F0180930E0180
:1002800025C024C08A81882339F481E090E09093CE
:100290000F0180930E0112C08A81833041F41982CC
:1002A00082E090E090930F0180930E0107C083E0FD
:1002B00090E090930F0180930E0108C007C081E089
:1002C00090E090930F0180930E01000088E290E08F
:0C02D0002981FC01208341CFF894FFCF6E
:0E02DC000000000200000000670000000000AB
:00000001FF
